{
  "contractName": "FarmerVegetableSale",
  "abi": [
    {
      "inputs": [
        {
          "internalType": "uint256",
          "name": "",
          "type": "uint256"
        }
      ],
      "name": "vegetables",
      "outputs": [
        {
          "internalType": "string",
          "name": "farmername",
          "type": "string"
        },
        {
          "internalType": "string",
          "name": "middleman",
          "type": "string"
        },
        {
          "internalType": "string",
          "name": "vegetable",
          "type": "string"
        },
        {
          "internalType": "uint256",
          "name": "price",
          "type": "uint256"
        },
        {
          "internalType": "string",
          "name": "date",
          "type": "string"
        }
      ],
      "stateMutability": "view",
      "type": "function"
    },
    {
      "inputs": [
        {
          "internalType": "string",
          "name": "_farmername",
          "type": "string"
        },
        {
          "internalType": "string",
          "name": "_middleman",
          "type": "string"
        },
        {
          "internalType": "string",
          "name": "_vegetable",
          "type": "string"
        },
        {
          "internalType": "uint256",
          "name": "_price",
          "type": "uint256"
        },
        {
          "internalType": "string",
          "name": "_date",
          "type": "string"
        }
      ],
      "name": "addvegetable",
      "outputs": [],
      "stateMutability": "nonpayable",
      "type": "function"
    },
    {
      "inputs": [],
      "name": "showcontent",
      "outputs": [
        {
          "components": [
            {
              "internalType": "string",
              "name": "farmername",
              "type": "string"
            },
            {
              "internalType": "string",
              "name": "middleman",
              "type": "string"
            },
            {
              "internalType": "string",
              "name": "vegetable",
              "type": "string"
            },
            {
              "internalType": "uint256",
              "name": "price",
              "type": "uint256"
            },
            {
              "internalType": "string",
              "name": "date",
              "type": "string"
            }
          ],
          "internalType": "struct FarmerVegetableSale.vegetable[]",
          "name": "",
          "type": "tuple[]"
        }
      ],
      "stateMutability": "view",
      "type": "function"
    }
  ],
  "bytecode": "0x608060405234801561001057600080fd5b50610f0f806100206000396000f3fe608060405234801561001057600080fd5b50600436106100415760003560e01c80630891d07614610046578063372c9b971461007a5780639be0ef2114610096575b600080fd5b610060600480360381019061005b91906106d8565b6100b4565b6040516100719594939291906107a4565b60405180910390f35b610094600480360381019061008f9190610948565b61031a565b005b61009e6103dd565b6040516100ab9190610bd9565b60405180910390f35b600081815481106100c457600080fd5b90600052602060002090600502016000915090508060000180546100e790610c2a565b80601f016020809104026020016040519081016040528092919081815260200182805461011390610c2a565b80156101605780601f1061013557610100808354040283529160200191610160565b820191906000526020600020905b81548152906001019060200180831161014357829003601f168201915b50505050509080600101805461017590610c2a565b80601f01602080910402602001604051908101604052809291908181526020018280546101a190610c2a565b80156101ee5780601f106101c3576101008083540402835291602001916101ee565b820191906000526020600020905b8154815290600101906020018083116101d157829003601f168201915b50505050509080600201805461020390610c2a565b80601f016020809104026020016040519081016040528092919081815260200182805461022f90610c2a565b801561027c5780601f106102515761010080835404028352916020019161027c565b820191906000526020600020905b81548152906001019060200180831161025f57829003601f168201915b50505050509080600301549080600401805461029790610c2a565b80601f01602080910402602001604051908101604052809291908181526020018280546102c390610c2a565b80156103105780601f106102e557610100808354040283529160200191610310565b820191906000526020600020905b8154815290600101906020018083116102f357829003601f168201915b5050505050905085565b60006040518060a00160405280878152602001868152602001858152602001848152602001838152509050600081908060018154018082558091505060019003906000526020600020906005020160009091909190915060008201518160000190816103869190610e07565b50602082015181600101908161039c9190610e07565b5060408201518160020190816103b29190610e07565b506060820151816003015560808201518160040190816103d29190610e07565b505050505050505050565b60606000805480602002602001604051908101604052809291908181526020016000905b8282101561068557838290600052602060002090600502016040518060a001604052908160008201805461043490610c2a565b80601f016020809104026020016040519081016040528092919081815260200182805461046090610c2a565b80156104ad5780601f10610482576101008083540402835291602001916104ad565b820191906000526020600020905b81548152906001019060200180831161049057829003601f168201915b505050505081526020016001820180546104c690610c2a565b80601f01602080910402602001604051908101604052809291908181526020018280546104f290610c2a565b801561053f5780601f106105145761010080835404028352916020019161053f565b820191906000526020600020905b81548152906001019060200180831161052257829003601f168201915b5050505050815260200160028201805461055890610c2a565b80601f016020809104026020016040519081016040528092919081815260200182805461058490610c2a565b80156105d15780601f106105a6576101008083540402835291602001916105d1565b820191906000526020600020905b8154815290600101906020018083116105b457829003601f168201915b50505050508152602001600382015481526020016004820180546105f490610c2a565b80601f016020809104026020016040519081016040528092919081815260200182805461062090610c2a565b801561066d5780601f106106425761010080835404028352916020019161066d565b820191906000526020600020905b81548152906001019060200180831161065057829003601f168201915b50505050508152505081526020019060010190610401565b50505050905090565b6000604051905090565b600080fd5b600080fd5b6000819050919050565b6106b5816106a2565b81146106c057600080fd5b50565b6000813590506106d2816106ac565b92915050565b6000602082840312156106ee576106ed610698565b5b60006106fc848285016106c3565b91505092915050565b600081519050919050565b600082825260208201905092915050565b60005b8381101561073f578082015181840152602081019050610724565b60008484015250505050565b6000601f19601f8301169050919050565b600061076782610705565b6107718185610710565b9350610781818560208601610721565b61078a8161074b565b840191505092915050565b61079e816106a2565b82525050565b600060a08201905081810360008301526107be818861075c565b905081810360208301526107d2818761075c565b905081810360408301526107e6818661075c565b90506107f56060830185610795565b8181036080830152610807818461075c565b90509695505050505050565b600080fd5b600080fd5b7f4e487b7100000000000000000000000000000000000000000000000000000000600052604160045260246000fd5b6108558261074b565b810181811067ffffffffffffffff821117156108745761087361081d565b5b80604052505050565b600061088761068e565b9050610893828261084c565b919050565b600067ffffffffffffffff8211156108b3576108b261081d565b5b6108bc8261074b565b9050602081019050919050565b82818337600083830152505050565b60006108eb6108e684610898565b61087d565b90508281526020810184848401111561090757610906610818565b5b6109128482856108c9565b509392505050565b600082601f83011261092f5761092e610813565b5b813561093f8482602086016108d8565b91505092915050565b600080600080600060a0868803121561096457610963610698565b5b600086013567ffffffffffffffff8111156109825761098161069d565b5b61098e8882890161091a565b955050602086013567ffffffffffffffff8111156109af576109ae61069d565b5b6109bb8882890161091a565b945050604086013567ffffffffffffffff8111156109dc576109db61069d565b5b6109e88882890161091a565b93505060606109f9888289016106c3565b925050608086013567ffffffffffffffff811115610a1a57610a1961069d565b5b610a268882890161091a565b9150509295509295909350565b600081519050919050565b600082825260208201905092915050565b6000819050602082019050919050565b600082825260208201905092915050565b6000610a7b82610705565b610a858185610a5f565b9350610a95818560208601610721565b610a9e8161074b565b840191505092915050565b610ab2816106a2565b82525050565b600060a0830160008301518482036000860152610ad58282610a70565b91505060208301518482036020860152610aef8282610a70565b91505060408301518482036040860152610b098282610a70565b9150506060830151610b1e6060860182610aa9565b5060808301518482036080860152610b368282610a70565b9150508091505092915050565b6000610b4f8383610ab8565b905092915050565b6000602082019050919050565b6000610b6f82610a33565b610b798185610a3e565b935083602082028501610b8b85610a4f565b8060005b85811015610bc75784840389528151610ba88582610b43565b9450610bb383610b57565b925060208a01995050600181019050610b8f565b50829750879550505050505092915050565b60006020820190508181036000830152610bf38184610b64565b905092915050565b7f4e487b7100000000000000000000000000000000000000000000000000000000600052602260045260246000fd5b60006002820490506001821680610c4257607f821691505b602082108103610c5557610c54610bfb565b5b50919050565b60008190508160005260206000209050919050565b60006020601f8301049050919050565b600082821b905092915050565b600060088302610cbd7fffffffffffffffffffffffffffffffffffffffffffffffffffffffffffffffff82610c80565b610cc78683610c80565b95508019841693508086168417925050509392505050565b6000819050919050565b6000610d04610cff610cfa846106a2565b610cdf565b6106a2565b9050919050565b6000819050919050565b610d1e83610ce9565b610d32610d2a82610d0b565b848454610c8d565b825550505050565b600090565b610d47610d3a565b610d52818484610d15565b505050565b5b81811015610d7657610d6b600082610d3f565b600181019050610d58565b5050565b601f821115610dbb57610d8c81610c5b565b610d9584610c70565b81016020851015610da4578190505b610db8610db085610c70565b830182610d57565b50505b505050565b600082821c905092915050565b6000610dde60001984600802610dc0565b1980831691505092915050565b6000610df78383610dcd565b9150826002028217905092915050565b610e1082610705565b67ffffffffffffffff811115610e2957610e2861081d565b5b610e338254610c2a565b610e3e828285610d7a565b600060209050601f831160018114610e715760008415610e5f578287015190505b610e698582610deb565b865550610ed1565b601f198416610e7f86610c5b565b60005b82811015610ea757848901518255600182019150602085019450602081019050610e82565b86831015610ec45784890151610ec0601f891682610dcd565b8355505b6001600288020188555050505b50505050505056fea264697066735822122091eaac86a1ab91f40f4874bfd378ca6e67b17c7328f3a57aa3ea9a6a136b2b5d64736f6c63430008130033",
  "immutableReferences": {},
  "source": "// SPDX-License-Identifier: MIT\r\npragma solidity ^0.8.0;\r\n\r\ncontract FarmerVegetableSale {\r\n\r\n    struct vegetable{\r\n        string farmername;\r\n        string middleman;\r\n\t    string vegetable;\r\n        uint price;\r\n        string date;\r\n    }\r\n\r\n    vegetable[] public vegetables;\r\n\r\n    function addvegetable(string memory _farmername,string memory _middleman,string memory _vegetable,uint _price,string memory _date) public{\r\n        vegetable memory newvegie = vegetable(_farmername,_middleman,_vegetable, _price,_date);\r\n        vegetables.push(newvegie);\r\n    }\r\n\r\n    function showcontent() public view returns (vegetable[] memory) {\r\n        return vegetables;\r\n    }\r\n}\r\n",
  "sourcePath": "C:\\Users\\rajes\\OneDrive\\Desktop\\7\\contracts\\agriproductmonitor.sol",
  "compiler": {
    "name": "solc",
    "version": "0.8.19+commit.7dd6d404.Emscripten.clang"
  },
  "schemaVersion": "3.4.13",
  "updatedAt": "2023-04-09T17:02:04.682Z",
  "devdoc": {
    "kind": "dev",
    "methods": {},
    "version": 1
  },
  "userdoc": {
    "kind": "user",
    "methods": {},
    "version": 1
  }
}